
ASSIST/I Version 2.03, Copyright 1984, BDM Software.

************************************************************************
*   FILE NAME: PROG5.PRT                       ASSIGNMENT#:  5         *
*				                  	                                   *
*   AUTHOR __________________________________________	               *
*	           ALEX KNIPFER		                                       *
*					                                                   *
*   COURSE: CSC25500    SECTION: 11      DUE DATE: 11/13/2015          *
*			                                                           *
*   PURPOSE: THIS PROGRAM READS IN DATA (NUMBERS) AND BUILDS A LIST OF *
*            VALUES. IT CALCULATES THE SUM AND AVERAGE OF THE DATA.    *
*            IT THEN COMPARES ALL THE VALUES TO THE AVERAGE AND PRINTS *
*            OUT ALL VALUES LESS THAN THE AVERAGE AND ALL VALUES       *
*            GREATER THAN THE AVERAGE. IT KEEPS TRACK OF THE AMOUNT OF *
*            THE NUMBERS GREATER AND LESS THAN THE AVERAGE AS WELL. IT *
*            ALSO PRINTS OUT HOW MANY OF THE VALUES ARE EQUAL TO THE   *
*            AVERAGE.												   *
************************************************************************
                                                                                                                            PAGE 1
  LOC  OBJECT CODE    ADDR1 ADDR2   STMT    SOURCE STATEMENT

000000                                1 PROG5    CSECT
000000                                2          USING PROG5,15
                                      3 *
                                      4 ***<STEP 1> INITIALIZE REGISTERS AND TABLES
000000 1B44                           5          SR    4,4                SET COUNT OF ENTRIES
000002 4130 F180            00180     6          LA    3,TABLE            LOAD ADDRESS OF TABLE1
000006 4180 F220            00220     7          LA    8,LGTABLE          LOAD ADDRESS OF TABLE2
00000A 41D0 F2C0            002C0     8          LA    13,SMTABLE         LOAD ADDRESS OF TABLE3
00000E 1B77                           9          SR    7,7                SUM OF VALUES
000010 1B66                          10          SR    6,6                HOLDS TABLE VALUES
000012 1B99                          11          SR    9,9                USED TO LOAD TABLES AGAIN
000014 1BCC                          12          SR    12,12              LOADS ADDRESSES IN TABLE3
000016 1BBB                          13          SR    11,11              VALUES EQUAL TO AVERAGE
                                     14 *
                                     15 ***<STEP 2> PRINT INITIAL HEADER BEFORE LISTING VALUES
                                     16 *
000018 E020 F868 0012 00868          17          XPRNT =C'      TABLE VALUES'
                                     18 *
                                     19 ***<STEP 3> READ DATA (NUMBERS) INTO TABLE
                                     20 *
00001E E000 F360 0050 00360          21 READ     XREAD CARD,80            READ IN LINE
000024 4740 F048            00048    22          BC    B'0100',SUM        BRANCH TO SUM IF EOF
000028 5320 F360            00360    23          XDECI 2,CARD             CONVERT NUMBER
00002C 5220 F3B0            003B0    24          XDECO 2,NUMLINE          PLACE NUMBER IN NUMLINE
000030 E020 F3B0 0050 003B0          25          XPRNT NUMLINE,80         PRINT NUMBER
000036 1A72                          26          AR    7,2                ADD NUMBER TO SUM
000038 5023 0000            00000    27          ST    2,0(3)             STORE NUMBER IN TABLE
00003C 4144 0001            00001    28          LA    4,1(4)             ADD 1 TO ENTRY COUNT
000040 4133 0004            00004    29          LA    3,4(3)             LOAD NEXT ADDRESS
000044 47F0 F01E            0001E    30          BC    B'1111',READ       BRANCH TO READ
                                     31 *
                                     32 ***<STEP 4> PRINT THE SUM OF THE NUMBERS
                                     33 *
000048 5270 F55E            0055E    34 SUM      XDECO 7,SUMLINE+30       ADD SUM TO SUMLINE
00004C E020 F810 0050 00810          35          XPRNT BLANK,80           PRINT BLANK LINE
000052 E020 F540 0050 00540          36          XPRNT SUMLINE,80         PRINT THE SUM
                                     37 *
                                     38 ***<STEP 5> CALCULATE AND PRINT THE AVERAGE
                                     39 *
000058 1D64                          40 AVG      DR    6,4                DIVIDE SUM TO GET AVG
00005A 5270 F50E            0050E    41          XDECO 7,AVERAGE+30       ADD AVERAGE TO LINE
00005E E020 F810 0050 00810          42          XPRNT BLANK,80           PRINT BLANK LINE
000064 E020 F4F0 0050 004F0          43          XPRNT AVERAGE,80         PRINT THE AVERAGE
00006A E020 F810 0050 00810          44          XPRNT BLANK,80           PRINT BLANK LINE
                                     45 *
                                     46 ***<STEP 6> RELOAD TABLE TO READ VALUES
                                     47 *
000070 5860 F180            00180    48          L     6,TABLE            GET FIRST ENTRY OF TABLE
000074 4150 F180            00180    49          LA    5,TABLE            GET ADDRESS OF FIRST ENTRY
000078 1B22                          50          SR    2,2                NUMBERS LARGER THAN AVG
00007A 1B44                          51          SR    4,4                NUMBERS LESS THAN AVG

                                                                                                                            PAGE 2
  LOC  OBJECT CODE    ADDR1 ADDR2   STMT    SOURCE STATEMENT

                                     52 *
                                     53 ***<STEP 7> GET VALUES LESS AND GREATER THAN AVERAGE (AND EQUAL)
                                     54 *
00007C 1953                          55 LOOP     CR    5,3                COMPARE ADDRESS TO SEE IF DONE
00007E 4780 F0E2            000E2    56          BC    B'1000',PLARGE     IF EQUAL PRINT LARGER VALUES
000082 1967                          57          CR    6,7                COMPARE NUM TO AVG
000084 4720 F0A2            000A2    58          BC    B'0010',LARGER     IF LARGER BRANCH TO LARGER
000088 4740 F0BC            000BC    59          BC    B'0100',LESS       IF LESS BRANCH TO LESS
00008C 4780 F0DA            000DA    60          BC    B'1000',EQUAL      IF EQUAL BRANCH TO EQUAL
                                     61 *
000090 5A50 F860            00860    62 CONT     A     5,FOUR             ADD FOUR TO ADDRESS
000094 5865 0000            00000    63          L     6,0(5)             GET NEXT NUMBER
000098 1953                          64          CR    5,3                COMPARE ADDRESS TO SEE IF DONE
00009A 4780 F0E2            000E2    65          BC    B'1000',PLARGE     IF EQUAL PRINT LARGER
00009E 47F0 F07C            0007C    66          BC    B'1111',LOOP       ELSE BRANCH TO LOOP
                                     67 *
                                     68 *** LARGER STORES NUMBERS IN NEW TABLE
                                     69 *** (ANY NUMBERS LARGER THAN AVERAGE WILL BE STORED HERE)
                                     70 *
0000A2 5A20 F864            00864    71 LARGER   A     2,ONE              ADD ONE TO COUNT
0000A6 5068 0000            00000    72          ST    6,0(8)             STORE NUMBER IN NEW TABLE
0000AA 4188 0004            00004    73          LA    8,4(8)             GET ADDRESS OF NEXT ENTRY
0000AE 5A50 F860            00860    74          A     5,FOUR             GET ADDRESS OF NEXT ENTRY
0000B2 5865 0000            00000    75          L     6,0(5)             GET NEXT NUMBER
0000B6 1953                          76          CR    5,3                COMPARE ADDRESS TO SEE IF DONE
0000B8 47F0 F07C            0007C    77          BC    B'1111',LOOP       GET MORE NUMBERS
                                     78 *
                                     79 *** LESS STORES NUMERS IN NEW TABLE
                                     80 *** (ANY NUMBERS LESS THAN AVERAGE WILL BE STORED HERE)
                                     81 *
0000BC 5A40 F864            00864    82 LESS     A     4,ONE              ADD ONE TO COUNT
0000C0 506D 0000            00000    83          ST    6,0(13)            STORE NUMBER IN NEW TABLE
0000C4 41CC 0001            00001    84          LA    12,1(12)           GET ADDRESS FOR COUNT
0000C8 41DD 0004            00004    85          LA    13,4(13)           GET ADDRESS OF NEXT ENTRY
0000CC 5A50 F860            00860    86          A     5,FOUR             GET NEXT ENTRY ADDRESS
0000D0 5865 0000            00000    87          L     6,0(5)             GET NEXT NUMBER
0000D4 1953                          88          CR    5,3                COMPARE ADDRESS TO SEE IF DONE
0000D6 47F0 F07C            0007C    89          BC    B'1111',LOOP       GET MORE NUMBERS
                                     90 *
                                     91 *** THIS KEEPS TRACK OF NUMBERS EQUAL TO AVERAGE
                                     92 *
0000DA 5AB0 F864            00864    93 EQUAL    A     11,ONE             ADD ONE TO COUNT
0000DE 47F0 F090            00090    94          BC    B'1111',CONT       CONTINUE GETTING NUMBERS
                                     95 *
                                     96 ***<STEP 8> PRINT VALUES LESS THAN AND GREATER THAN AVERAGE
                                     97 *
                                     98 *** PLARGE PRINTS AMOUNT OF NUMBERS LARGER THAN AVERAGE
                                     99 *
0000E2 E020 F590 0050 00590         100 PLARGE   XPRNT LGAVG,80           PRINT LABEL
0000E8 5220 F5FE            005FE   101          XDECO 2,LGAVG2+30        ADD TOTAL TO LINE
0000EC E020 F5E0 0050 005E0         102          XPRNT LGAVG2,80          PRINT AMOUNT LARGER
0000F2 47F0 F0F6            000F6   103          BC    B'1111',PTABLE2    GO PRINT THE VALUES
                                    104 *

                                                                                                                            PAGE 3
  LOC  OBJECT CODE    ADDR1 ADDR2   STMT    SOURCE STATEMENT

                                    105 *** PRINT ALL VALUES LARGER THAN AVERAGE THAT ARE IN TABLE
                                    106 *
0000F6 5890 F220            00220   107 PTABLE2  L     9,LGTABLE          GET FIRST VALUE
0000FA 41A0 F220            00220   108          LA    10,LGTABLE         GET FIRST ADDRESS
0000FE E020 F630 0050 00630         109          XPRNT LGAVG3,80          PRINT LABEL
000104 5290 F450            00450   110 PLOOP    XDECO 9,LARGEAVG         ADD VALUE TO LINE
000108 E020 F450 0050 00450         111          XPRNT LARGEAVG,80        PRINT VALUE
00010E 5AA0 F860            00860   112          A     10,FOUR            GET NEXT ADDRESS
000112 589A 0000            00000   113          L     9,0(10)            GET NEXT NUMBER
000116 19A8                         114          CR    10,8               COMPARE ADDRESS TO SEE IF DONE
000118 4780 F120            00120   115          BC    B'1000',PEQUAL     IF EQUAL PRINT VALUES EQUAL
00011C 47F0 F104            00104   116          BC    B'1111',PLOOP      ELSE GET MORE NUMBERS
                                    117 *
                                    118 *** PEQUAL PRINTS AMOUNT OF VALUES EQUAL TO AVERAGE
                                    119 *
000120 E020 F810 0050 00810         120 PEQUAL   XPRNT BLANK,80           PRINT BLANK LINE
000126 E020 F680 0050 00680         121          XPRNT EQLAVG,80          PRINT LABEL
00012C 52B0 F6EE            006EE   122          XDECO 11,EQLAVG2+30      ADD AMOUNT TO LINE
000130 E020 F6D0 0050 006D0         123          XPRNT EQLAVG2,80         PRINT AMOUNT EQUAL
000136 E020 F810 0050 00810         124          XPRNT BLANK,80           PRINT BLANK LINE
00013C 47F0 F140            00140   125          BC    B'1111',PLESS      PRINT AMOUNT LESS
                                    126 *
                                    127 *** PLESS PRINTS AMOUNT OF VALUES LESS THAN AVERAGE
                                    128 *
000140 E020 F720 0050 00720         129 PLESS    XPRNT SMAVG,80           PRINT LABEL
000146 5240 F78E            0078E   130          XDECO 4,SMAVG2+30        ADD AMOUNT TO LINE
00014A E020 F770 0050 00770         131          XPRNT SMAVG2,80          PRINT AMOUNT LESS
000150 47F0 F154            00154   132          BC    B'1111',PTABLE3    GO PRINT THE VALUES
                                    133 *
                                    134 *** PTABLE3 PRINTS VALUES IN TABLE LESS THAN AVERAGE
                                    135 *
000154 5890 F2C0            002C0   136 PTABLE3  L     9,SMTABLE          GET FIRST NUMBER
000158 41A0 F2C0            002C0   137          LA    10,SMTABLE         GET FIRST ADDRESS
00015C E020 F7C0 0050 007C0         138          XPRNT SMAVG3,80          PRINT LABEL
000162 5290 F4A0            004A0   139 PLOOP2   XDECO 9,SMALLAVG         ADD VALUES TO LINE
000166 E020 F4A0 0050 004A0         140          XPRNT SMALLAVG,80        PRINT VALUE
00016C 5AA0 F860            00860   141          A     10,FOUR            GET NEXT ADDRESS
000170 589A 0000            00000   142          L     9,0(10)            GET NEXT NUMBER
000174 19AD                         143          CR    10,13              COMPARE ADDRESS TO SEE IF DONE
000176 4780 F17E            0017E   144          BC    B'1000',DONE       GO TERMINATE PROGRAM
00017A 47F0 F162            00162   145          BC    B'1111',PLOOP2     GET MORE NUMBERS
                                    146 *
                                    147 ***<STEP 9> TERMINATE PROGRAM AND EXIT TO OPERATING SYSTEM
                                    148 *
00017E 07FE                         149 DONE     BCR   B'1111',14         TERMINATE PROGRAM
                                    150 *
                                    151 *****************************************************
                                    152 *
000180                              153 TABLE    DS    40F                DECLARE TABLE OF 40 VALS
000220                              154 LGTABLE  DS    40F                DECLARE TABLE OF 40 VALS
0002C0                              155 SMTABLE  DS    40F                DECLARE TABLE OF 40 VALS
000360                              156 CARD     DS    CL80               CARD INPUT AREA
0003B0 5C40404040404040             157 NUMLINE  DC    CL80'*'

                                                                                                                            PAGE 4
  LOC  OBJECT CODE    ADDR1 ADDR2   STMT    SOURCE STATEMENT

000400 5C40404040404040             158 LARGEVAL DC    CL80'*'
000450 5C40404040404040             159 LARGEAVG DC    CL80'*'
0004A0 5C40404040404040             160 SMALLAVG DC    CL80'*'
0004F0 40E3C8C540C1E5C5             161 AVERAGE  DC    CL80' THE AVERAGE OF THE VALUES IS:'
000540 40E3C8C540E2E4D4             162 SUMLINE  DC    CL80' THE SUM OF THE VALUES IS:'
000590 40E3C8C540D5E4D4             163 LGAVG    DC    CL80' THE NUMBER OF VALUES GREATER THAN'
0005E0 40E3C8C540C1E5C5             164 LGAVG2   DC    CL80' THE AVERAGE IS:'
000630 40E3C8C5E840C1D9             165 LGAVG3   DC    CL80' THEY ARE:'
000680 40E3C8C540D5E4D4             166 EQLAVG   DC    CL80' THE NUMBER OF VALUES EQUAL TO'
0006D0 40E3C8C540C1E5C5             167 EQLAVG2  DC    CL80' THE AVERAGE IS:'
000720 40E3C8C540D5E4D4             168 SMAVG    DC    CL80' THE NUMBER OF VALUES LESS THAN'
000770 40E3C8C540C1E5C5             169 SMAVG2   DC    CL80' THE AVERAGE IS:'
0007C0 40E3C8C5E840C1D9             170 SMAVG3   DC    CL80' THEY ARE:'
000810 5C40404040404040             171 BLANK    DC    CL80'*'
000860 00000004                     172 FOUR     DC    F'4'
000864 00000001                     173 ONE      DC    F'1'
                                    174 *
                                    175          END   PROG5
000868 404040404040E3C1                          =C'      TABLE VALUES'

***   0 STATEMENTS FLAGGED - 0 WARNINGS, 0 ERRORS

*** PROGRAM EXECUTION BEGINNING -
ANY OUTPUT BEFORE EXECUTION COMPLETE MESSAGE IS PRODUCED BY USER PROGRAM ***

     TABLE VALUES
        123
        234
         45
         65
         24
         90
        143
         66
         72
         95
         95
         93
         90
         75
        115
         95
        345
         55
         61
         42
         33
         88
         95
         90
         80
         76
         80
        111
         79
         95

THE SUM OF THE VALUES IS:            2850

THE AVERAGE OF THE VALUES IS:          95

THE NUMBER OF VALUES GREATER THAN
THE AVERAGE IS:                         6
THEY ARE:
        123
        234
        143
        115
        345
        111

THE NUMBER OF VALUES EQUAL TO
THE AVERAGE IS:                         5

THE NUMBER OF VALUES LESS THAN
THE AVERAGE IS:                        19
THEY ARE:
         45
         65
         24
         90
         66
         72
         93
         90
         75
         55
         61
         42
         33
         88
         90
         80
         76
         80
         79

*** EXECUTION COMPLETED ***
